:020000040800F2
:1000000000000120CD34000811340008133400082A
:1000100015340008173400081934000800000000E7
:100020000000000000000000000000001B34000879
:100030001D340008000000001F34000821340008AF
:100040001D3500081D3500081D3500081D35000848
:100050001D3500081D3500081D3500081D35000838
:100060001D3500081D3500081D3500081D35000828
:100070001D3500081D3500081D3500081D35000818
:100080001D3500081D3500081D3500081D35000808
:100090001D3500081D3500081D3500081D350008F8
:1000A0001D3500081D3500081D3500081D350008E8
:1000B0001D35000800000000000000001D3500088C
:1000C0001D35000800000000000000001D3500087C
:1000D000000000001D3500081D350008000000006C
:1000E0001D3500081D35000800000000000000005C
:1000F0000000000000000000000000000000000000
:100100000000000000000000000000001D35000895
:1001100000000000000000001D3500081D3500082B
:100120001D3500081D3500081D3500081D35000867
:100130001D35000800000000000000000000000065
:100140001D3500081D3500081D3500081D35000847
:100150001D3500081D3500081D3500081D35000837
:100160001D3500081D3500081D3500080000000081
:100170001D3500081D3500080000000000000000CB
:0C0180001D3500081D3500081D35000865
:1001C00010B5054C237833B9044B13B10448AFF391
:1001D00000800123237010BDB8090020000000003A
:1001E00078AF000808B5034B1BB103490348AFF3D0
:1001F000008008BD00000000BC09002078AF0008A6
:1002000053B94AB9002908BF00281CBF4FF0FF317D
:100210004FF0FF3000F074B9ADF1080C6DE904CE79
:1002200000F006F8DDF804E0DDE9022304B07047D1
:100230002DE9F047089E0D4604468846002B4DD117
:100240008A42944668D9B2FA82F252B101FA02F3B4
:10025000C2F1200120FA01F10CFA02FC41EA030884
:1002600094404FEA1C45210CB8FBF5FE1FFA8CF7B1
:1002700005FB1E8341EA03430EFB07F199420BD9AC
:100280001CEB03030EF1FF3080F01E81994240F217
:100290001B81AEF1020E63445B1AA4B2B3FBF5F00E
:1002A00005FB103344EA034400FB07F7A7420AD9D1
:1002B0001CEB040400F1FF3380F00881A74240F2F8
:1002C000058164440238E41B40EA0E4000211EB15F
:1002D000D4400023C6E90043BDE8F0878B4208D92B
:1002E000002E00F0EE800021C6E900050846BDE8BA
:1002F000F087B3FA83F100294AD1AB4202D382429C
:1003000000F2F980841A65EB030301209846002E61
:10031000E2D0C6E90048DFE702B9FFDEB2FA82F2B6
:10032000002A40F09180A1EB0C054FEA1C471FFA10
:100330008CFE0121B5FBF7F307FB1350250C45EAB2
:1003400000450EFB03F0A84208D91CEB050503F19C
:10035000FF3802D2A84200F2CB8043462D1AA4B245
:10036000B5FBF7F007FB105544EA05440EFB00FE11
:10037000A64508D91CEB040400F1FF3502D2A645BE
:1003800000F2BB802846A4EB0E0440EA03409EE73F
:10039000C1F120078B4022FA07FC4CEA030C20FA3B
:1003A00007F405FA01F31C43FD404FEA1C4900FA2B
:1003B00001F3B5FBF9F8200C1FFA8CFE09FB185568
:1003C00040EA054508FB0EF0A84202FA01F20BD9FB
:1003D0001CEB050508F1FF3A80F08880A84240F246
:1003E0008580A8F1020865442D1AA4B2B5FBF9F086
:1003F00009FB105544EA054500FB0EFEAE4508D941
:100400001CEB050500F1FF346CD2AE456AD9023809
:10041000654440EA0840A0FB0294A5EB0E05A54206
:10042000C846A64656D353D05EB1B3EB080265EB7F
:100430000E0505FA07F722FA01F3CD401F43C6E97E
:1004400000750021BDE8F087C2F1200320FA03F116
:100450000CFA02FC25FA03F395400D434FEA1C47C2
:100460001FFA8CFEB3FBF7F107FB11302B0C43EAAC
:10047000004301FB0EF0984204FA02F408D91CEB89
:10048000030301F1FF382FD298422DD9023963447A
:100490001B1AADB2B3FBF7F007FB103345EA034577
:1004A00000FB0EF3AB4208D91CEB050500F1FF3849
:1004B00016D2AB4214D902386544ED1A40EA014124
:1004C00038E73146304607E78646E5E61846FAE65D
:1004D0004B45A9D2B9EB020864EB0C0E0138A3E737
:1004E0004046EAE7204694E74146D1E7D0467BE71D
:1004F000023B654432E7084609E76444023842E7B4
:10050000704700BF844641EA000313F003036DD136
:10051000403A41D351F8043B40F8043B51F8043BC6
:1005200040F8043B51F8043B40F8043B51F8043BCD
:1005300040F8043B51F8043B40F8043B51F8043BBD
:1005400040F8043B51F8043B40F8043B51F8043BAD
:1005500040F8043B51F8043B40F8043B51F8043B9D
:1005600040F8043B51F8043B40F8043B51F8043B8D
:1005700040F8043B51F8043B40F8043B51F8043B7D
:1005800040F8043B51F8043B40F8043B51F8043B6D
:1005900040F8043B403ABDD2303211D351F8043B0D
:1005A00040F8043B51F8043B40F8043B51F8043B4D
:1005B00040F8043B51F8043B40F8043B103AEDD2BC
:1005C0000C3205D351F8043B40F8043B043AF9D20D
:1005D000043208D0D2071CBF11F8013B00F8013BE0
:1005E00001D30B8803806046704700BF082A13D3ED
:1005F0008B078DD010F003038AD0C3F10403D21A05
:10060000DB071CBF11F8013B00F8013B80D331F838
:10061000023B20F8023B7BE7043AD9D3013A11F8B8
:10062000013B00F8013BF9D20B7803704B78437023
:100630008B78837060467047000000000000000067
:1006400001F0FF01102A2BDB10F0070F08D010F883
:10065000013B013A8B422DD010F0070F42B3F6D187
:10066000F0B441EA012141EA014122F007047FF0A0
:1006700000070023F0E80256083C85EA010586EAF7
:10068000010685FA47F5A3FA87F586FA47F6A5FA33
:1006900087F68EB9EED1F0BC01F0FF0102F007023F
:1006A00032B110F8013B013A83EA010313B1F8D1EA
:1006B0000020704701387047002D06BF35460338CB
:1006C000073815F0010F07D1013015F4807F02BF04
:1006D000013015F4C03F0130F0BC0138704700BF55
:1006E000000000000000000000000000000000000A
:1006F00000000000000000000000000000000000FA
:1007000090F800F06DE9024520F007016FF0000C51
:1007100010F0070491F820F040F049804FF00004F9
:100720006FF00700D1E9002391F840F000F10800D4
:1007300082FA4CF2A4FA8CF283FA4CF3A2FA8CF30C
:100740004BBBD1E9022382FA4CF200F10800A4FA73
:100750008CF283FA4CF3A2FA8CF3E3B9D1E90423C7
:1007600082FA4CF200F10800A4FA8CF283FA4CF3FE
:10077000A2FA8CF37BB9D1E9062301F1200182FAB8
:100780004CF200F10800A4FA8CF283FA4CF3A2FABE
:100790008CF3002BC6D0002A04BF04301A4612BACC
:1007A000B2FA82F2FDE8024500EBD2007047D1E9CF
:1007B000002304F00305C4F100004FEAC50514F05E
:1007C000040F91F840F00CFA05F562EA05021CBF2F
:1007D00063EA050362464FF00004A9E781F0004197
:1007E00002E000BF83F0004330B54FEA41044FEA16
:1007F000430594EA050F08BF90EA020F1FBF54EAB1
:10080000000C55EA020C7FEA645C7FEA655C00F04C
:10081000E2804FEA5454D4EB5555B8BF6D420CDD1D
:100820002C4480EA020281EA030382EA000083EAA0
:10083000010180EA020281EA0303362D88BF30BD40
:1008400011F0004F4FEA01314FF4801C4CEA113196
:1008500002D0404261EB410113F0004F4FEA0333F5
:100860004CEA133302D0524263EB430394EA050F80
:1008700000F0A780A4F10104D5F1200E0DDB02FAEF
:100880000EFC22FA05F2801841F1000103FA0EF283
:10089000801843FA05F359410EE0A5F120050EF149
:1008A000200E012A03FA0EFC28BF4CF0020C43FA7A
:1008B00005F3C01851EBE37101F0004507D54FF087
:1008C000000EDCF1000C7EEB00006EEB0101B1F5D7
:1008D000801F1BD3B1F5001F0CD349085FEA30001D
:1008E0004FEA3C0C04F101044FEA445212F5800F28
:1008F00080F09A80BCF1004F08BF5FEA500C50F1C5
:10090000000041EB045141EA050130BD5FEA4C0CA7
:10091000404141EB0101013C28BFB1F5801FE9D204
:1009200091F0000F04BF01460020B1FA81F308BF27
:100930002033A3F10B03B3F120020CDA0C3208DDF3
:1009400002F1140CC2F10C0201FA0CF021FA02F1CE
:100950000CE002F11402D8BFC2F1200C01FA02F13E
:1009600020FA0CFCDCBF41EA0C019040E41AA2BF63
:1009700001EB0451294330BD6FEA04041F3C1CDA2B
:100980000C340EDC04F11404C4F1200220FA04F04B
:1009900001FA02F340EA030021FA04F345EA0301F5
:1009A00030BDC4F10C04C4F1200220FA02F001FAB7
:1009B00004F340EA0300294630BD21FA04F0294639
:1009C00030BD94F0000F83F4801306BF81F48011D2
:1009D0000134013D4EE77FEA645C18BF7FEA655C45
:1009E00029D094EA050F08BF90EA020F05D054EA17
:1009F000000C04BF1946104630BD91EA030F1EBF1C
:100A00000021002030BD5FEA545C05D1400049411F
:100A100028BF41F0004130BD14F580043CBF01F512
:100A2000801130BD01F0004545F0FE4141F47001F8
:100A30004FF0000030BD7FEA645C1ABF19461046D3
:100A40007FEA655C1CBF0B46024650EA013406BFD4
:100A500052EA033591EA030F41F4002130BD00BF93
:100A600090F0000F04BF0021704730B54FF4806450
:100A700004F132044FF000054FF0000150E700BFD1
:100A800090F0000F04BF0021704730B54FF4806430
:100A900004F1320410F0004548BF40424FF000011D
:100AA0003EE700BF42004FEAE2014FEA31014FEA60
:100AB00002701FBF12F07F4393F07F4F81F06051AF
:100AC000704732F07F4208BF704793F07F4F04BFFA
:100AD00041F40021704730B54FF4607401F00045D7
:100AE00021F000411CE700BF50EA010208BF704737
:100AF00030B54FF000050AE050EA010208BF704728
:100B000030B511F0004502D5404261EB41014FF490
:100B1000806404F132045FEA915C3FF4D8AE4FF098
:100B200003025FEADC0C18BF03325FEADC0C18BF7B
:100B3000033202EBDC02C2F1200300FA03FC20FACC
:100B400002F001FA03FE40EA0E0021FA02F1144419
:100B5000BDE600BF70B54FF0FF0C4CF4E06C1CEA32
:100B600011541DBF1CEA135594EA0C0F95EA0C0FA3
:100B700000F0DEF82C4481EA030621EA4C5123EA16
:100B80004C5350EA013518BF52EA033541F4801145
:100B900043F4801338D0A0FB02CE4FF00005E1FBF8
:100BA00002E506F00042E0FB03E54FF00006E1FB42
:100BB00003569CF0000F18BF4EF0010EA4F1FF0485
:100BC000B6F5007F64F5407404D25FEA4E0E6D41C5
:100BD00046EB060642EAC62141EA55514FEAC520D6
:100BE00040EA5E504FEACE2EB4F1FD0C88BFBCF552
:100BF000E06F1ED8BEF1004F08BF5FEA500E50F103
:100C0000000041EB045170BD06F0004646EA0101C8
:100C100040EA020081EA0301B4EB5C04C2BFD4EBFA
:100C20000C0541EA045170BD41F480114FF0000EF3
:100C3000013C00F3AB8014F1360FDEBF002001F061
:100C4000004170BDC4F10004203C35DA0C341BDCDB
:100C500004F11404C4F1200500FA05F320FA04F0AD
:100C600001FA05F240EA020001F0004221F00041E1
:100C700010EBD37021FA04F642EB06015EEA430E54
:100C800008BF20EAD37070BDC4F10C04C4F1200584
:100C900000FA04F320FA05F001FA04F240EA020037
:100CA00001F0004110EBD37041F100015EEA430E08
:100CB00008BF20EAD37070BDC4F1200500FA05F228
:100CC0004EEA020E20FA04F301FA05F243EA0203A7
:100CD00021FA04F001F0004121FA04F220EA0200B6
:100CE00000EBD3705EEA430E08BF20EAD37070BDFC
:100CF00094F0000F0FD101F00046400041EB0101DC
:100D000011F4801F08BF013CF7D041EA060195F0BD
:100D1000000F18BF704703F00046520043EB030377
:100D200013F4801F08BF013DF7D043EA0603704764
:100D300094EA0C0F0CEA135518BF95EA0C0F0CD06F
:100D400050EA410618BF52EA4306D1D181EA0301B5
:100D500001F000414FF0000070BD50EA410606BFAF
:100D60001046194652EA430619D094EA0C0F02D1F4
:100D700050EA013613D195EA0C0F05D152EA033639
:100D80001CBF104619460AD181EA030101F0004157
:100D900041F0FE4141F470014FF0000070BD41F0A0
:100DA000FE4141F4780170BD70B54FF0FF0C4CF47A
:100DB000E06C1CEA11541DBF1CEA135594EA0C0F99
:100DC00095EA0C0F00F0A7F8A4EB050481EA030EE6
:100DD00052EA03354FEA013100F088804FEA0333CD
:100DE0004FF0805545EA131343EA12634FEA02229B
:100DF00045EA111545EA10654FEA00260EF000415C
:100E00009D4208BF964244F1FD0404F5407402D2AD
:100E10005B084FEA3202B61A65EB03055B084FEA3E
:100E200032024FF480104FF4002CB6EB020E75EB3B
:100E3000030E22BFB61A754640EA0C005B084FEA63
:100E40003202B6EB020E75EB030E22BFB61A7546E0
:100E500040EA5C005B084FEA3202B6EB020E75EB2B
:100E6000030E22BFB61A754640EA9C005B084FEAA3
:100E70003202B6EB020E75EB030E22BFB61A7546B0
:100E800040EADC0055EA060E18D04FEA051545EA9F
:100E900016754FEA06164FEAC30343EA52734FEA48
:100EA000C2025FEA1C1CC0D111F4801F0BD141EAC1
:100EB00000014FF000004FF0004CB6E711F4801F26
:100EC00004BF01430020B4F1FD0C88BFBCF5E06F06
:100ED0003FF6AFAEB5EB030C04BFB6EB020C5FEA16
:100EE000500C50F1000041EB045170BD0EF0004E6B
:100EF0004EEA113114EB5C04C2BFD4EB0C0541EA9D
:100F0000045170BD41F480114FF0000E013C90E699
:100F100045EA060E8DE60CEA135594EA0C0F08BF5D
:100F200095EA0C0F3FF43BAF94EA0C0F0AD150EA5C
:100F300001347FF434AF95EA0C0F7FF425AF1046EF
:100F400019462CE795EA0C0F06D152EA03353FF417
:100F5000FDAE1046194622E750EA410618BF52EA94
:100F600043067FF4C5AE50EA41047FF40DAF52EA68
:100F700043057FF4EBAE12E74FF0FF3C06E000BF05
:100F80004FF0010C02E000BF4FF0010C4DF804CD12
:100F90004FEA410C7FEA6C5C4FEA430C18BF7FEAD2
:100FA0006C5C1BD001B050EA410C0CBF52EA430C00
:100FB00091EA030F02BF90EA020F0020704710F180
:100FC000000F91EA030F58BF994208BF90422CBF0F
:100FD000D8176FEAE37040F0010070474FEA410C08
:100FE0007FEA6C5C02D150EA013C07D14FEA430C26
:100FF0007FEA6C5CD6D152EA033CD3D05DF8040B97
:10100000704700BF8446104662468C4619466346C8
:1010100000E000BF01B5FFF7B7FF002848BF10F19F
:10102000000F01BD4DF808EDFFF7F4FF0CBF0120E4
:1010300000205DF808FB00BF4DF808EDFFF7EAFF60
:1010400034BF012000205DF808FB00BF4DF808ED1B
:10105000FFF7E0FF94BF012000205DF808FB00BF10
:101060004DF808EDFFF7CEFF94BF012000205DF89A
:1010700008FB00BF4DF808EDFFF7C4FF34BF0120A7
:1010800000205DF808FB00BF4FEA410C7FEA6C5C72
:1010900002D150EA013C0AD14FEA430C7FEA6C5C72
:1010A00002D152EA033C02D14FF0000070474FF0EA
:1010B000010070474FEA410212F5001215D211D516
:1010C0006FF47873B3EB625212D94FEAC12343F045
:1010D000004343EA505311F0004F23FA02F018BFC7
:1010E000404270474FF00000704750EA013005D190
:1010F00011F0004008BF6FF0004070474FF0000053
:10110000704700BF104B1B780BB90120704710B51A
:1011100004464FF47A70B0FBF3F30C4A1068B0FB4E
:10112000F3F000F0CFFB68B90F2C01D901200AE0E1
:10113000002221464FF0FF3000F08CFB044B1C6076
:10114000002000E0012010BD000000200800002069
:101150000400002010B5032000F06AFB0020FFF718
:10116000D1FF10B10124204610BD044602F098F8CA
:10117000F9E70000034B1B78034A11680B44136026
:10118000704700BF00000020D4090020014B186800
:10119000704700BFD409002038B50446FFF7F6FFBA
:1011A0000546B4F1FF3F02D0044B1B781C44FFF707
:1011B000EDFF401BA042FAD338BD00BF0000002065
:1011C00030B583B000230193002800F0D38004469B
:1011D000436D13B323689A6812F0005F05D09A68D4
:1011E00022F0204222F03F029A602268936813F0B6
:1011F000805F1FD1936823F0104323F03F0343F037
:10120000805393605C4B1B689B095C4AA2FB0323E1
:101210009B0901335B00019309E002F059F80023B8
:10122000A36584F85030D5E7019B013B0193019BF6
:10123000002BF9D12268936813F0805F71D1636D40
:1012400043F010036365A36D43F00103A365012020
:10125000936813F0040300D00123616D11F0100FA7
:1012600040F08180002B7ED1636D23F4817343F0C5
:1012700002036365936813F0010F0BD1404B9B6829
:1012800013F0010F06D163683E498A6822F47C128C
:1012900013438B60627E636B43EA4233E26813431D
:1012A000A268134394F8202043EA0243012A3AD06B
:1012B000A26A22B102F47072E16A0A431343216800
:1012C000CD68314A2A401343CB602268936813F0FB
:1012D000080300D00123ABB9217E94F830305B00C5
:1012E00043EA8131D36823F4804323F002030B43A4
:1012F000D36094F83830012B1AD02268136923F098
:10130000010313612369012B24D02268136B23F09E
:101310000F031363636D23F0030343F0010363655D
:1013200026E0002094E7626A013A43EA4243BFE7BD
:1013300021680B6923F4FF6323F00403E26B256C3F
:101340002A43656C2A43A56C2A43134343F00103E7
:101350000B61D7E721680B6B23F00F03E269013AB9
:1013600013430B63D6E7636D43F0100363650120FD
:1013700003B030BD0120FBE708000020632D3E05CF
:10138000000004500003045007C0F0FF0368186C0D
:1013900070470000F0B583B00022019290F8502011
:1013A000012A00F03B820346012280F850200068A9
:1013B000826812F0040F09D05A6D42F020025A657B
:1013C0000120002283F8502003B0F0BD4A68052AAE
:1013D00007D8023A032A65D8DFE802F002665F61A7
:1013E0000C2200F1300E100A800000F00C005EF8B4
:1013F000004002F01F024FF01F0C0CFA02FC24EA1E
:101400000C0C0C68C4F3846404FA02F24CEA020285
:101410004EF800201C68A26812F0040200D00122DD
:10142000A06810F0080000D001200AB900283DD0C3
:101430001868826812F0010F18D10A68CD68D0F8D8
:10144000B040C2F3120C24EA0C0405F0180CAC4DA9
:1014500025FA0CFC02EA0C02C2F312022243C0F885
:10146000B020C868A74A904200F0B5800A68A64933
:101470000A4200F0CF81A549896801F0E074A448D0
:10148000824200F07981A348824200F09C81A24808
:10149000824200F0AC81002093E71822A1E74FF4CC
:1014A00080729EE706229CE712229AE70E688D68FA
:1014B0001434720E920002F00402A058C6F3045CC9
:1014C000072606FA0CF620EA060005FA0CF5284372
:1014D000A0504C691868C268C2F3C102520004FAF5
:1014E00002F20D69042D0ED00E68603050F82570A0
:1014F0008A4C3C4006F0F8463243144344F0004422
:1015000040F8254094E7026E046EC4F384640A68D0
:10151000C2F3120585BBC2F38462944234D01C68C6
:10152000626E606EC0F384600A68C2F3120585BB08
:10153000C2F38462904234D01C68A26EA06EC0F3E5
:1015400084600A68C2F3120585BBC2F384629042CC
:1015500034D01C68E26EE06EC0F384600A68C2F3A7
:10156000120585BBC2F3846290427FF461AFE26EE4
:1015700022F00042E2665BE792FAA2F212B1B2FAFE
:1015800082F2CAE72022C8E7026E22F00042026619
:10159000C5E792FAA2F212B1B2FA82F2CAE72022A9
:1015A000C8E7626E22F000426266C5E792FAA2F2D4
:1015B00012B1B2FA82F2CAE72022C8E7A26E22F084
:1015C0000042A266C5E792FAA2F212B1B2FA82F222
:1015D000CAE72022C8E71C680A68C2F31205002D7A
:1015E00039D1900E013000F01F0009288CBF002077
:1015F0000120002867D0002D3CD1900E01308006DC
:1016000000F0F840002D41D1960E013606F01F0C77
:10161000012606FA0CF63043002D46D1920E013217
:1016200002F01F0202EB420212050243886804F135
:101630001406550EAD0005F004057459C2F30452AA
:101640004FF0070C0CFA02FC24EA0C0C90404CEA18
:10165000000070510AE792FAA2F048B1B0FA80F0A7
:10166000013000F01F0009288CBF00200120C0E7D6
:101670002020F5E792FAA2F030B1B0FA80F0013004
:10168000800600F0F840BDE72020F8E792FAA2F6C5
:101690004EB1B6FA86F6013606F01F064FF0010C81
:1016A0000CFA06F6B7E72026F5E792FAA2F242B165
:1016B000B2FA82F2013202F01F0202EB420212057C
:1016C000B3E72022F6E75DBB900E0130800600F004
:1016D000F8408DBB960E013606F01F0C012606FA67
:1016E0000CF63043BDBB920E013202F01F0202EB3A
:1016F00042021E3A120542F00072024396E700BF12
:10170000FFFF070000007F40000008800003045036
:10171000000052C7000084CB0100008000F0FF03EE
:1017200092FAA2F030B1B0FA80F00130800600F0F9
:10173000F840CEE72020F8E792FAA2F64EB1B6FACA
:1017400086F6013606F01F064FF0010C0CFA06F67D
:10175000C7E72026F5E792FAA2F25AB1B2FA82F26E
:10176000013202F01F0202EB42021E3A120542F061
:101770000072C2E72022F3E711F4000F7FF483AE7A
:101780001968274A914201D000201AE644F4000269
:101790002448816821F0E0710A438260224A12687D
:1017A00092092249A1FB02129209013202EB420284
:1017B0009200019202E0019A013A0192019A002AF4
:1017C000F9D10020FDE511F0807F7FF460AE19684B
:1017D000134A914201D00020F3E544F08072114891
:1017E000816821F0E0710A4382600020E9E511F48C
:1017F000800F11D119680A4A914201D00020E0E51A
:1018000044F480020748816821F0E0710A43826055
:101810000020D6E50020D4E50020D2E50220D3E563
:10182000000004500003045008000020632D3E0512
:10183000074AD36823F4E0631B041B0C000200F486
:10184000E060034343F0BF6343F40033D360704769
:1018500000ED00E000B5194BDB68C3F30223C3F1D0
:10186000070CBCF1040F28BF4FF0040C03F1040E69
:10187000BEF1060F18D9033B4FF0FF3E0EFA0CFCE9
:1018800021EA0C0199400EFA03F322EA03031943FB
:1018900000280BDB0901C9B200F1604000F561408E
:1018A00080F800135DF804FB0023E5E700F00F006B
:1018B0000901C9B2024B1954F4E700BF00ED00E082
:1018C00014ED00E00138B0F1807F0BD24FF0E0233F
:1018D0005861054AF02182F8231000209861072200
:1018E0001A6170470120704700ED00E070B582B0CA
:1018F000002365E085685E000324B44025EA040502
:10190000CC68B4402C438460446824EA0C0C4C68D6
:10191000C4F300149C4044EA0C04446061E0DD0818
:10192000083550F8256003F007044FEA840C0F24B3
:1019300004FA0CF426EA040E0C6904FA0CF444EAE6
:101940000E0440F8254063E0022400E0002404FA7D
:101950000EF42C430CF1020C4E4D45F82C404E4C2D
:10196000A568D44325EA0206D1F804C01CF4801F00
:1019700001D042EA0506484DAE60ED6804EA05066E
:10198000D1F804C01CF4001F01D042EA0506424D04
:10199000EE606D6804EA0506D1F804C01CF4003F4F
:1019A00001D042EA05063C4D6E602D682C404E6821
:1019B00016F4803F01D042EA0504374A146001332F
:1019C0000A6832FA03F462D04FF0010C0CFA03FCFF
:1019D0001CEA0202F3D04C6804F00304013C012C21
:1019E00088D94C6804F00304032C0CD0C4685D0053
:1019F0004FF0030C0CFA05FC24EA0C0C8C68AC408C
:101A000044EA0C04C4604C6804F00304022C86D041
:101A100004684FEA430E4FF0030C0CFA0EFC24EA64
:101A20000C0C4C6804F0030404FA0EF444EA0C04B1
:101A300004604C6814F4403FC1D0184C256E45F04A
:101A400001052566246E04F001040194019C4FEA0F
:101A5000930C0CF102050F4C54F8255003F00304CD
:101A60004FEA840E0F2404FA0EF425EA0405B0F1BF
:101A7000904F3FF46BAF0A4CA04206D004F580644F
:101A8000A0423FF461AF072461E701245FE702B0A1
:101A900070BD00BF00000140000401400010024082
:101AA000000400480AB18161704781627047436950
:101AB00001EA030221EA030141EA02418161704720
:101AC000024A136843F4807313607047007000404B
:101AD000024B186800F4C060704700BF00700040FF
:101AE000B0F5007F0FD01F4B1B6803F4C063B3F544
:101AF000806F34D01B4A136823F4C06343F48063BF
:101B0000136000207047174B1B6803F4C063B3F5E4
:101B1000007F20D0134A136823F4C06343F400739A
:101B20001360114B1B68322202FB03F30F4AA2FB26
:101B300003239B0C013300E0013B0A4A526912F473
:101B4000806F01D0002BF7D1064B5B6913F4806FD7
:101B500003D1002070470020704703207047002009
:101B6000704700BF007000400800002083DE1B4368
:101B700030B583B00446204B9B6D13F0805F0BD0D3
:101B8000FFF7A6FFB0F5007F17D0802C1FD82DD00F
:101B9000702C2DD000211BE0174DAB6D43F080530E
:101BA000AB65AB6D03F080530193019BFFF790FF92
:101BB000AB6D23F08053AB65E4E7802C03D9A02CF8
:101BC00003D9022104E0002102E0012100E0032109
:101BD0000A4A136823F007030B431360136803F0EA
:101BE00007038B4206D1002003B030BD0221EFE78E
:101BF0000121EDE70120F7E700100240002002403C
:101C0000284A9368D26802F0030213F00C030AD04A
:101C10000C2B06D0042B1FD0082B20D0002002460E
:101C200010E0012AF6D11F4A126812F0080F0CD1F9
:101C30001C4AD2F89420C2F303221B4951F82220F7
:101C400043B100200C2B0DD07047164A1268C2F326
:101C50000312F2E71046F5E714480022F2E71448B1
:101C60000022EFE70F4BDB6803F00303022B16D0D3
:101C7000032B00D10E4A0B49C868C0F30210431C65
:101C8000C868C0F3062002FB00F0B0FBF3F0CB689D
:101C9000C3F3416301335B00B0FBF3F0D4E7034AC5
:101CA000E9E700BF0010024034B000080024F4004F
:101CB00000127A00002800F01C83F0B583B00446BF
:101CC000964B9D6805F00C05DE6806F00306036878
:101CD00013F0100F5AD0E5B10C2D18D0A369002BCA
:101CE00000F0BB808D4A136843F001031360FFF7D7
:101CF0004DFA0746894B1B6813F0020F40F09A809B
:101D0000FFF744FAC01B0228F4D90320FCE2012E9D
:101D1000E4D1824B1B6813F0020F03D0A369002BA0
:101D200000F0E982206A7D4B1B6813F0080F5BD03E
:101D30007A4B1B6803F0F00398425CD8774B1A6823
:101D400042F008021A601A6822F0F002216A0A437F
:101D50001A605A6822F47F42E16942EA01225A601D
:101D6000002D60D0FFF74CFF6C4B9B68C3F303134F
:101D70006B4AD35C03F01F03D8406A4B18606A4B70
:101D80001868FFF7BFF9002840F0BE82236813F0FF
:101D9000010F00F08180082D75D00C2D71D0636883
:101DA000B3F5803F00F09780B3F5A02F00F0998045
:101DB0005A4B1A6822F480321A601A6822F4802280
:101DC0001A606368002B00F09980FFF7DFF907467F
:101DD000524B1B6813F4003F5ED1FFF7D7F9C01BCD
:101DE0006428F5D903208FE24C4BD3F894301B09BB
:101DF00003F0F003A0E7FFF7BBFE002840F07D8270
:101E0000464B1A6842F008021A601A6822F0F00283
:101E1000216A0A431A605A6822F47F42E16942EA61
:101E200001225A609EE7206AFFF7A2FE002899D09F
:101E3000012069E2394B1A6842F008021A601A68F8
:101E400022F0F002216A0A431A605A6822F47F42A3
:101E5000E16942EA01225A6098E7304A136823F0A8
:101E600001031360FFF792F907462C4B1B6813F030
:101E7000020F8BD0FFF78AF9C01B0228F5D9032087
:101E800042E2032E8BD1254B1B6813F4003F03D095
:101E90006368002B00F03382236813F0020F58D0E0
:101EA000042D45D00C2D41D0E368002B77D01B4A80
:101EB000136843F480731360FFF768F90646174B05
:101EC0001B6813F4806F61D1FFF760F9801B022853
:101ED000F5D9032018E2114A136843F480331360E4
:101EE0006FE703F18043A3F53C331A6842F4802284
:101EF0001A601A6842F480321A6062E7FFF746F906
:101F00000746064B1B6813F4003FC5D0FFF73EF9A8
:101F1000C01B6428F5D90320F6E100BF0010024081
:101F20001CB000080800002004000020022EBBD1D5
:101F3000A44B1B6813F4806F03D0E368002B00F000
:101F4000E081A04A536823F0F853216943EA016312
:101F50005360236813F0080F4CD063699BB3994A10
:101F6000D2F8943043F00103C2F89430FFF70EF931
:101F70000646944BD3F8943013F0020F3AD1FFF792
:101F800005F9801B0228F4D90320BDE18D4A53686E
:101F900023F0F853216943EA01635360D9E7894A82
:101FA000136823F480731360FFF7F0F80646854B3F
:101FB0001B6813F4806FCCD0FFF7E8F8801B022871
:101FC000F5D90320A0E17F4AD2F8943023F0010331
:101FD000C2F89430FFF7DAF806467A4BD3F894301B
:101FE00013F0020F06D0FFF7D1F8801B0228F4D9B6
:101FF000032089E1236813F0040F7AD0714B9B6DA5
:1020000013F0805F36D16F4B9A6D42F080529A6523
:102010009B6D03F080530193019B01266A4B1B6863
:1020200013F4807F28D0A368012B39D0052B3FD033
:10203000644BD3F8902022F00102C3F89020D3F82B
:10204000902022F00402C3F89020A368002B3DD01A
:10205000FFF79CF807465B4BD3F8903013F0020F64
:1020600046D1FFF793F8C01B41F288339842F2D96A
:10207000032049E10026D1E7534A136843F48073F3
:102080001360FFF783F807464F4B1B6813F4807FFC
:10209000C9D1FFF77BF8C01B0228F5D9032033E133
:1020A000484AD2F8903043F00103C2F89030CCE7B0
:1020B000444BD3F8902042F00402C3F89020D3F8A8
:1020C000902042F00102C3F89020BEE7FFF75EF8CF
:1020D00007463C4BD3F8903013F0020F08D0FFF7BF
:1020E00055F8C01B41F288339842F2D903200BE126
:1020F000E6B9236813F0200F35D0636AE3B1314AA3
:10210000D2F8983043F00103C2F89830FFF73EF858
:1021100006462C4BD3F8983013F0020F23D1FFF76B
:1021200035F8801B0228F4D90320EDE0254A936D91
:1021300023F080539365DCE7224AD2F8983023F0ED
:102140000103C2F89830FFF721F806461D4BD3F87B
:10215000983013F0020F06D0FFF718F8801B022802
:10216000F4D90320D0E0A36A002B00F0CC80022B2E
:1021700017D00C2D00F0CC80124A136823F0807326
:102180001360FFF703F804460E4B1B6813F0007F43
:1021900000F0A880FEF7FAFF001B0228F4D9032004
:1021A000B2E0084BDB6803F00301E26A91420DD014
:1021B0000C2D00F0AB80034B1B6813F0806F2FD009
:1021C0000120A1E0001002400070004003F0700206
:1021D000216B0139B2EB011FEAD103F4FE42616BBE
:1021E000B2EB012FE4D103F07842A16BB2EBC16FE7
:1021F000DED103F4C001E26B5208013AB1EB425F59
:10220000D6D103F0C063226C5208013AB3EB426F9F
:10221000CED1404B1B6813F0007F49D0002073E003
:102220003C4A136823F080731360FEF7AFFF054646
:10223000384B1B6813F0007F06D0FEF7A7FF401B4A
:102240000228F5D903205FE0324AD36832491940A9
:10225000E36A206B013843EA0013606B43EA002312
:10226000E06B4008013843EA4053206C40080138D5
:1022700043EA4063A06B43EAC0630B43D360136837
:1022800043F080731360D36843F08073D360FEF72C
:102290007DFF04461F4B1B6813F0007F06D1FEF73D
:1022A00075FF001B0228F5D903202DE000202BE04C
:1022B000184B1A6842F080721A60DA6842F0807235
:1022C000DA60FEF763FF0446124B1B6813F0007FD1
:1022D00006D1FEF75BFF031B022BF5D9032013E0A9
:1022E000002011E00B4AD1680C4B0B40D36000205A
:1022F0000AE001207047012006E0012004E00120EF
:1023000002E0012000E0002003B0F0BD0120FBE767
:102310000120F9E7001002408C809D01FCFFEEFED9
:10232000002800F0AF8070B50D460446594B1B687D
:1023300003F007038B420BD2564A136823F00703BE
:102340000B431360136803F007038B4240F09C803B
:10235000236813F0020F0CD0A2684F4B9B6803F068
:10236000F0039A4205D94C498B6823F0F0031A43D5
:102370008A60236813F0010F39D06368032B09D0FA
:10238000022B26D063BB444A126812F0020F06D11A
:10239000012076E0404A126812F0007F76D03E4974
:1023A0008A6822F0030213438B60FEF7EFFE0646B5
:1023B000394B9B6803F00C036268B3EB820F16D0B5
:1023C000FEF7E4FE801B41F288339842F0D90320E7
:1023D00057E0314A126812F4003FE0D1012050E08A
:1023E0002D4A126812F4806FD9D1012049E0236888
:1023F00013F0020F0CD0A268274B9B6803F0F00388
:102400009A4205D224498B6823F0F0031A438A606C
:10241000204B1B6803F00703AB420AD91D4A13681F
:1024200023F007032B431360136803F00703AB4249
:102430002ED1236813F0040F06D0174A936823F4B3
:10244000E063E1680B439360236813F0080F07D043
:10245000114A936823F46053216943EAC1039360EE
:10246000FFF7CEFB0C4B9B68C3F303130B4AD35C03
:1024700003F01F03D8400A4B18600A4B1868FEF798
:1024800041FE70BD012070470120FAE70120F8E706
:102490000120F6E700200240001002401CB00008B6
:1024A0000800002004000020014B1868704700BF9E
:1024B0000800002008B5FFF7F7FF054B9B68C3F342
:1024C0000223044AD35C03F01F03D84008BD00BFB9
:1024D000001002402CB0000808B5FFF7E5FF054BDF
:1024E0009B68C3F3C223044AD35C03F01F03D840A4
:1024F00008BD00BF001002402CB00008F8B504462B
:102500000F46584BDB6813F0030F18D0554BDB68B0
:1025100003F003030268934202D001252846F8BD68
:10252000002A00F09D804F4BDB68C3F30213013398
:102530004268934201D00125F0E7002509E00368D5
:10254000022B56D0032B5BD0012B41D00125002D4F
:10255000E4D1444A136823F080631360FEF716FE4B
:102560000646404B1B6813F0006F05D0FEF70EFEC9
:10257000831B022BF5D90325002DCFD1002F4DD180
:1025800038490B6923F0784323F4FE43A068E268DE
:10259000D20642EA002213430B61324A136843F029
:1025A00080631360FEF7F2FD06462E4B1B6813F0A6
:1025B000006F05D1FEF7EAFD831B022BF5D9032539
:1025C000002DABD1274A1369A1690B431361A5E71D
:1025D000244A126812F0020F1ED02248C26822F06C
:1025E00073026168013943EA01131343C360002594
:1025F000ADE71C4A126812F4806FEED10125A6E700
:10260000184A126812F4003FE7D1164A126812F411
:10261000802FE2D101259AE7012598E7012F0FD0FD
:102620001048026922F0C06222F4FE42A168636988
:102630005B08013B5B0643EA012313430361ACE7FC
:102640000848026922F4C00222F4FE42A16823690C
:102650005B08013B5B0543EA0123134303619CE7ED
:1026600001255BE7001002402DE9F04182B00446ED
:10267000036813F4006F25D0C36BB3F5000F06D0C9
:10268000B3F5400F12D04BB1012637461CE0AE4ADD
:10269000D36843F48033D360002708E0002104307E
:1026A000FFF72CFF074610B106460DE00027A64AAB
:1026B000D2F8883023F44003E16B0B43C2F8883032
:1026C000002601E000263746236813F4003F6BD054
:1026D0009D4B9B6D13F0805F4CD19B4B9A6D42F0EC
:1026E00080529A659B6D03F080530193019B4FF0DC
:1026F0000108964A136843F480731360FEF746FDA1
:102700000546924B1B6813F4807F05D1FEF73EFD12
:10271000401B0228F5D90327002F40D18A4BD3F85C
:10272000903013F4407315D0226D9A4212D0864A2D
:10273000D2F8903023F44073D2F8901041F48031F5
:10274000C2F89010D2F8901021F48031C2F89010A5
:10275000C2F8903013F0010F0FD1002F40F0C98064
:10276000794AD2F8903023F44073216D0B43C2F8BC
:10277000903015E04FF00008BBE7FEF707FD054677
:10278000714BD3F8903013F0020FE6D1FEF7FEFC48
:10279000401B41F288339842F2D90327DDE73E46D9
:1027A000B8F1000F40F0A780236813F0010F08D0A4
:1027B000654AD2F8883023F00303216A0B43C2F83C
:1027C0008830236813F0020F08D05F4AD2F88830AF
:1027D00023F00C03616A0B43C2F88830236813F0BE
:1027E000200F08D0584AD2F8883023F44063A16AF9
:1027F0000B43C2F88830236813F4007F08D0524A94
:10280000D2F8883023F44023616B0B43C2F8883040
:10281000236813F4806F08D04B4AD2F8883023F431
:102820004013A16B0B43C2F88830236813F0400FAC
:1028300008D0454AD2F8883023F44053E16A0B436C
:10284000C2F88830236813F4807F08D03E4AD2F85B
:10285000883023F44033216B0B43C2F8883023685F
:1028600013F4005F0FD0384AD2F8883023F0406369
:10287000216C0B43C2F88830236CB3F1006F40D059
:10288000B3F1806F42D0236813F4802F0FD02E4A0B
:10289000D2F8883023F04063616C0B43C2F8883073
:1028A000636CB3F1006F39D0B3F1806F3BD0236814
:1028B00013F4804F0CD0244AD2F8883023F04053D0
:1028C000A16C0B43C2F88830A36CB3F1805F32D0A7
:1028D000236813F4004F08D01B4AD2F8883023F045
:1028E0008043E16C0B43C2F88830304602B0BDE84B
:1028F000F0813E4654E7144A936D23F0805393656C
:1029000052E7D36843F48013D360BCE70121201D54
:10291000FFF7F4FD0028B6D00646B4E7D36843F4C9
:102920008013D360C3E70121201DFFF7E7FD0028D6
:10293000BDD00646BBE70221201DFFF7DFFD0028C2
:10294000C6D00646C4E700BF001002400070004039
:10295000024A136843F004031360704700100240FA
:10296000026852E8003F23F4907342E800310029E6
:10297000F6D1026802F1080353E8003F23F0010397
:10298000083242E800310029F3D1036E012B06D052
:102990002023C0F8803000230366836670470268F6
:1029A00052E8003F23F0100342E800310029F6D13D
:1029B000EEE7000010B5044601688368026913431E
:1029C00042691343C269134308688C4A02401343A7
:1029D0000B602268536823F44053E1680B43536053
:1029E000A1692268864B9A4201D0236A19439368F1
:1029F00023F430630B4393602368824A93421CD0D4
:102A0000814A93422DD07E4A934243D010227C4982
:102A10008B4260D0E069B0F5004F00F08C80082A4E
:102A200000F2E580DFE812F0B400CA00B200E30073
:102A3000CD00E300E300E300D00002F55842D2F8F5
:102A4000882002F00302032A09D8DFE802F002041A
:102A500038060122DBE70422D9E70822D7E7102253
:102A6000D5E702F5E632D2F8882002F00C020C2AF3
:102A70000ED8DFE802F0070D0D0D090D0D0D260D26
:102A80000D0D0B000022C2E70422C0E70822BEE7BA
:102A90001022BCE702F5C832D2F8882002F4406266
:102AA000B2F5006F0FD005D87AB1B2F5806F0ED1B4
:102AB0000422ACE7B2F5406F0BD10822A7E702224F
:102AC000A5E70222A3E70222A1E700229FE7102246
:102AD0009DE710229BE7082A79D8DFE802F0087802
:102AE0002A782778787805004FF4004003E0FFF754
:102AF000E1FC00286DD0626802EB420383426AD891
:102B0000B0EB023F69D8010E00025308C0184FF025
:102B1000000341F10001FDF773FBA0F540723B4B50
:102B20009A425CD82368D860002043E0FFF768F839
:102B3000DFE73748DFE7082A53D8DFE802F007214C
:102B40000552245252520B00314803E0FFF7B2FC09
:102B5000002848D06268530803EB4000B0FBF2F055
:102B6000A0F110024FF6EF739A423ED883B223F0E1
:102B70000F03C0F3420018432368D860002019E017
:102B8000FFF7AAFCE4E7FFF73BF8E1E7204802E0A3
:102B9000FFF790FC68B3636800EB5300B0FBF3F001
:102BA000A0F110024FF6EF739A4224D8236880B246
:102BB000D86000200023A366E36610BDFFF78CFCFD
:102BC000E8E7FFF71DF8E5E74FF40040E3E70120F1
:102BD000F0E70020EEE70120ECE70120EAE7012022
:102BE000E8E70120E6E70020E4E70120E2E7012032
:102BF000E0E70020DEE70120DCE700BFF369FFEF3C
:102C0000008000400038014000440040FFFC0F00FD
:102C10000024F400436A13F0080F06D002685368DA
:102C200023F40043416B0B435360436A13F0010FDD
:102C300006D00268536823F40033816A0B43536063
:102C4000436A13F0020F06D00268536823F48033FE
:102C5000C16A0B435360436A13F0040F06D0026845
:102C6000536823F48023016B0B435360436A13F0D2
:102C7000100F06D00268936823F48053816B0B43D6
:102C80009360436A13F0200F06D00268936823F420
:102C90000053C16B0B439360436A13F0400F0AD09B
:102CA0000268536823F48013016C0B435360036C78
:102CB000B3F5801F0BD0436A13F0800F06D0026873
:102CC000536823F40023816C0B4353607047026800
:102CD000536823F4C003416C0B435360EBE72DE9C9
:102CE000F84305460F4616469946DDF820802C68C5
:102CF000E46937EA04030CBF4FF0010C4FF0000CFD
:102D0000B44532D1B8F1FF3FF1D0FEF73FFAA0EB66
:102D1000090040452CD8B8F1000F2BD02B681A6859
:102D200012F0040FE3D0DA6912F0080F11D1DA695A
:102D300012F4006FDBD04FF400621A622846FFF7EE
:102D40000FFE2023C5F88430002385F87830032057
:102D50000CE008241C622846FFF702FEC5F88440F8
:102D6000002385F87830012000E00020BDE8F883DA
:102D70000320FBE70320F9E72DE9F04182B01E466E
:102D8000C36F202B56D104460D469046002955D0DE
:102D90000AB901204FE00023C0F884302123C36723
:102DA000FEF7F4F90746A4F85080A4F85280A3680F
:102DB000B3F5805F02D04FF0000818E0236913B12B
:102DC0004FF0000813E0A846002510E02023E36739
:102DD000032030E038F8023B2268C3F30803138570
:102DE000B4F8522092B2013A92B2A4F85220B4F848
:102DF00052309BB27BB100963B4600228021204698
:102E0000FFF76DFF0028E1D1002DE3D0236815F80E
:102E1000012B1A85E4E700963B460022402120461C
:102E2000FFF75DFF10B92023E36704E02023E36789
:102E3000032000E0022002B0BDE8F0810120FAE7A3
:102E400030B583B004460023C0F88430FEF79EF905
:102E500005462268126812F0080F0FD123681B681C
:102E600013F0040F26D12023E367C4F8803000203C
:102E70002066606684F8780003B030BD6FF07E4352
:102E80000093034600224FF400112046FFF727FF6E
:102E90000028E3D0226852E8003F23F0800342E894
:102EA00000310029F6D12023E367002384F878302D
:102EB0000320E1E76FF07E4300932B4600224FF49E
:102EC00080012046FFF70BFF0028CCD0226852E893
:102ED000003F23F4907342E800310029F6D12268C4
:102EE00002F1080353E8003F23F00103083242E8EF
:102EF00000310029F3D12023C4F88030002384F866
:102F000078300320B8E768B310B50446C36F03B345
:102F10002423E3672268136823F001031360636AC4
:102F2000E3B92046FFF746FD012811D02268536817
:102F300023F4904353602268936823F02A0393603C
:102F40002268136843F0010313602046FFF778FFFF
:102F500010BD80F8783000F00BFAD9E72046FFF773
:102F600059FEDEE7012070479CB002460023009323
:102F7000ADF804300293ADF80C3004930693079338
:102F800010461CB07047000010B50446084800F019
:102F90008FF86069FEF7FAF90246E06120340549CE
:102FA000204600F04DFB204600F082F810BD00BF27
:102FB00090AF0008A4AF000810B50446034800F025
:102FC00077F8A1882068FEF772FD10BDC0AF000839
:102FD00038B504460B4800F06BF8FEF7D7F8A36944
:102FE000C31A40F2DC52934203D82046FFF7CCFFCD
:102FF00038BD0546044800F05BF8A5612046FFF7A0
:10300000DBFFF2E7CCAF0008D8AF000830B589B0DD
:10301000002403940494059406940794164BDA6CE8
:1030200042F00402DA64DA6C02F004020092009AC0
:10303000DA6C42F00102DA64DA6C02F00102019209
:10304000019ADA6C42F00202DA64DB6C03F00203EC
:103050000293029B094D224608212846FEF722FDD5
:1030600008230393012304930594069403A9284697
:10307000FEF73CFC09B030BD0010024000040048DF
:1030800070B50C46164600250BE04FF0FF330122C9
:1030900021460648FFF770FE14F8010BAFF30080DD
:1030A0000135B542F1DB304670BD00BF3C0A00205F
:1030B00010B50446FEF76AF801462246014800F0C2
:1030C000ABFA10BDF0AF000872B6FEE708B50B48CA
:1030D0000B4B03604FF4E133436000238360C36014
:1030E00003610C2242618361C36103624362FFF7A3
:1030F0000AFF00B908BDFFF7E7FF00BF3C0A002048
:103100000044004000B587B0002300930193029370
:103110000393049305931848184A02604360836040
:10312000C360036104224261037643760122C261D7
:1031300080F820308362C36280F83030436380F8C7
:103140003830FEF73DF890B90D4B009306230193FC
:10315000002302937F22039204220492059369467E
:103160000548FEF717F920B907B05DF804FBFFF733
:10317000ABFFFFF7A9FF00BFD809002000000450F3
:103180000001802100B597B04422002105A800F07D
:10319000F1F90023009301930293039304934FF4F6
:1031A0000070FEF79DFC002831D1FEF789FC1B4A18
:1031B000D2F8903023F01803C2F89030142305930E
:1031C000012307930B9300220C9260220D9202229E
:1031D0000F921093119310231293072313931492B9
:1031E000159205A8FEF766FD98B90F2300930323F7
:1031F0000193002302930393049301216846FFF790
:103200008FF840B9FFF7A4FB17B05DF804FBFFF798
:103210005BFFFFF759FFFFF757FF00BF00100240A9
:1032200000B59DB0FDF796FFFFF7ACFFFFF7EEFE90
:10323000FFF74CFFFFF766FF1348FFF739FF134C0A
:103240006846FFF791FE702269462046FDF75AF95D
:103250000F4B23610F4B23600823A3804FF0904353
:10326000A3604FF40043A3810B4B63610B48FFF74E
:103270001FFF2046FFF7A0FE0448FFF7A9FE4FF40A
:10328000FA70FDF789FFF7E7FCAF0008C40A0020D9
:103290003C0A002000040048D809002014B00008AF
:1032A00082B00A4B1A6E42F001021A661A6E02F0E0
:1032B00001020092009A9A6D42F080529A659B6DCD
:1032C00003F080530193019B02B07047001002404D
:1032D00010B59CB0044600211791189119911A91CC
:1032E0001B91542202A800F045F922681E4B9A4215
:1032F00001D01CB010BD4FF4804302934FF08053B7
:103300001493012303930493102305930723069337
:103310000223079308934FF08073099302A8FFF7E5
:10332000A3F9F0B9114BDA6C42F40052DA64DA6CAA
:1033300002F400520092009ADA6C42F00102DA6460
:10334000DB6C03F001030193019B082317930B230C
:1033500018930023199317A94FF09040FEF7C6FA6F
:10336000C7E7FFF7B1FEDDE70000045000100240A0
:1033700070B59CB0044600211791189119911A91CB
:103380001B91542202A800F0F5F822681E4B9A42C5
:1033900001D01CB070BD0223029302A8FFF764F9AC
:1033A00000282ED1194B9A6D42F400329A659A6D1D
:1033B00002F400320092009ADA6C42F00102DA6400
:1033C000DB6C03F001030193019B04231793022696
:1033D00018960025199503241A9407231B9317A9FF
:1033E0004FF09040FEF782FA4FF40043179318967F
:1033F00019951A941B9417A94FF09040FEF776FA8E
:10340000C7E7FFF761FECDE700440040001002402F
:10341000FEE7FEE7FEE7FEE7FEE77047704770470E
:1034200008B5FDF7A7FE08BD0120704708B500F0FC
:1034300077F8162303604FF0FF3008BD08B54FF052
:10344000FF31FFF7F3FFFEE770B50C461646002587
:1034500006E0AFF30080214601F8010B01350C4670
:10346000B542F6DB304670BD4FF0FF3070474FF489
:1034700000534B60002070470120704700207047C8
:1034800010B503460C4A0D490D48006840B10C4880
:1034900000680344521A934206D8094A136010BDCB
:1034A0000748084C0460F2E700F03AF80C23036088
:1034B0004FF0FF30F3E700BF0000012000040000E0
:1034C000340B0020800B002070470000DFF834D060
:1034D000FFF7FAFF0C480D490D4A002302E0D458CB
:1034E000C4500433C4188C42F9D30A4A0A4C00234E
:1034F00001E013600432A242FBD300F017F8FFF79B
:103500008FFEFEE70000012000000020B809002027
:1035100094B40008B8090020800B0020FEE70000EA
:10352000014B1868704700BF0C00002070B50D4EAD
:103530000D4D761BB61006D0002455F8043B01341F
:103540009847A642F9D1094E094D761B07F014FDA4
:10355000B61006D0002455F8043B01349847A64223
:10356000F9D170BD88B4000888B4000890B4000890
:1035700088B40008830730B548D0541E002A3FD0D5
:10358000CAB2034601E0013C3AD303F8012B9D0780
:10359000F9D1032C2DD9CDB245EA05250F2C45EAEA
:1035A000054536D9A4F1100222F00F0C03F1200ECC
:1035B000E6444FEA121C03F1100242E9045542E9C5
:1035C000025510327245F8D10CF1010214F00C0FC3
:1035D00003EB021204F00F0C13D0ACF1040323F040
:1035E00003030433134442F8045B9342FBD10CF011
:1035F00003042CB1CAB21C4403F8012B9C42FBD13A
:1036000030BD64461346002CF4D1F9E70346144656
:10361000BFE71A46A446E0E70FB400B5074983B0F8
:1036200004AB086853F8042B8168019301F046FD50
:1036300003B05DF804EB04B0704700BF0C0000203D
:103640000EB410B59DB06FF000411FABCDE906017F
:103650000491094953F8042B0290084C086801931F
:1036600002A9059400F00CF8029B00221A701DB00C
:10367000BDE8104003B070470C0000200802FFFFB7
:103680002DE9F04FD5B00C460C9191460E930A905F
:1036900004F012FE036817931846FDF731F8A3896A
:1036A0001690190603D52369002B00F08B870024A0
:1036B0002BAB4D46CDE92944CDE91944CDE91B4456
:1036C0001294289398461894002308940024CDE976
:1036D00014342B78002B00F0DD81AA4604E01AF8A0
:1036E000013F002B00F01681252BF8D1BAEB05061F
:1036F00040F014819AF80030002B00F0CB810023B9
:103700004FF0FF329AF801608DF8833009930AF187
:10371000010A07921F462B244FF020090AF1010AE3
:10372000A6F120035A2B00F22D81DFE813F0BA0234
:103730002B012B01B5022B012B012B016A002B0160
:103740002B014F02E3022B015A02C9022B01C402D2
:103750005B005B005B005B005B005B005B005B0091
:103760005B002B012B012B012B012B012B012B01CA
:10377000BF012B011A028600BF01BF01BF012B014F
:103780002B012B012B01B0022B012B01C3002B01BC
:103790002B012B0124022B015F022B012B013C0783
:1037A0002B012B012B012B012B012B012B012B01B9
:1037B000BF012B011A028800BF01BF01BF01A30294
:1037C000880081002B0196022B018202C500700245
:1037D00081002B0124027E0039072B012B011907E0
:1037E0002B017E00A6F1300300221AF8016B02EBD8
:1037F000820203EB4202A6F13003092BF5D90992AC
:103800008EE7DDF828B0584604F056FD43681B9358
:103810001846FCF775FF1C900646584604F04CFD10
:1038200083681993002E40F07A869AF8006075E755
:103830009AF8006047F0200770E747F01007BA06D3
:103840000E9B40F18081073323F007031A465B6823
:1038500052F8084B0E929946002BC0F25F85079BE9
:10386000013301F01F8054EA090327F0800B00F0B8
:10387000E3840A2C79F1000380F08187303401233E
:103880008DF84F415F460B930DF24F1507990B983A
:103890009DF8832081424FF00003B8BF01460D938D
:1038A00006910F9313931093002A7CD0069B01334B
:1038B000069378E047F0100717F0200900F03481F4
:1038C0000E9B073323F00703D3F8049053F8084BFB
:1038D0000E9327F4806B002300228DF88320079A33
:1038E000511C00F00D8254EA09012BF0800740F0D2
:1038F0000682002A41F01080002B40F0A2841BF0C9
:1039000001030B9300F0378530238DF84F310DF212
:103910004F15BBE7BAEB050600F0BC802A9B334489
:103920002A93299B0133072BC8E90056299305DC0C
:1039300008F10808089B33440893DBE60C990A98C1
:1039400028AA05F05DFC80B90DF1AC08F2E70C99EE
:103950000A9828AA05F054FC002800F08C800D9BE2
:103960001BB10D990A9804F07DFB0C9B9B8913F009
:10397000400F089B18BF4FF0FF330893089855B0CD
:10398000BDE8F08F002E00F0858000228DF8EC60FD
:103990008DF88320012306930D920B9307920F92CB
:1039A000139210923BAD17F0020302D00699023138
:1039B000069117F0840B07D109990698A1EB00092D
:1039C000B9F1000F00F315832A9C8AB1299A0DF1F1
:1039D000830101320134C8F80010072A4FF00101B9
:1039E0002A942992C8F8041000F3468308F10808C5
:1039F00083B1299B21AA01330234C8F80020072B88
:103A00004FF002022A942993C8F8042000F3488357
:103A100008F10808BBF1800F00F00E82079B0B9A9B
:103A2000A3EB020BBBF1000F00F34F82FB0500F18B
:103A3000A5810B9BC8F804301C44299BC8F8005092
:103A40000133072B2A94299300F3C78208F1080851
:103A50007B0705D5099B069A9D1A002D00F32C8340
:103A6000DDE9083206998A42ACBF9B185B180893BF
:103A7000002C7FF46CAF002329930D9B1BB10D9993
:103A80000A9804F0EFFA0DF1AC0855462B78002B9C
:103A90007FF423AE2A9B002B3FF467AF0C9C0A985F
:103AA00028AA214605F0ACFBA38960E70E9B0733EB
:103AB00023F00702F2E80234CDE91434DDE91434CE
:103AC00024F000440E92994618462146A74B4FF029
:103AD000FF32FDF7D9FA002840F06284A34B484634
:103AE00021464FF0FF32FDF7B1FA002840F058842C
:103AF000DDE9140100220023FDF79EFA002840F0C2
:103B0000AD879DF883209A4D9A4B27F080070321BB
:103B1000472EC8BF1D4600230D9306910B910793B6
:103B20000F9313931093BFE617F0100340F02E8409
:103B300017F0400200F054870E9A52F8044B0E9290
:103B40009946A4B2C5E653F8044B0E93FB0600F168
:103B500018847D0640F1128444F3C0394B4624B2E8
:103B60007AE60E9B002253F8041B8DF883208DF813
:103B7000EC100E930EE70E9C079B54F8045B4FF07D
:103B800000098DF88390002D00F0D5865A1C00F0B6
:103B900052851A4649462846FCF752FD0D900028EA
:103BA00001F057800D9BCDF81C905B1B0B930E947E
:103BB00023EAE3739DF883200693CDF83490CDF883
:103BC0003C90CDF84C90CDF840906DE60E9B53F8AC
:103BD000042B0992002A80F2C983099A0E9352425B
:103BE00009929AF8006047F0040797E547F0100B38
:103BF0001BF0200900F081830E9B073323F007039D
:103C0000D3F8049053F8084B0E93012364E60E9BFF
:103C100053F8044B0E93302378268DF88430564B9E
:103C2000189347F0020B8DF885604FF000090223CE
:103C300052E6BD0600F18284FC0600F17386780628
:103C400000F13C87B90540F16D860E9B089953F849
:103C5000042B0E931170554618E79AF800606C2EED
:103C600003BF9AF8016047F020070AF1010A47F004
:103C7000100753E59AF80060682E03BF9AF80160B8
:103C800047F400770AF1010A47F0400746E59AF841
:103C9000006047F0080741E59AF8006047F0010727
:103CA0003CE59DF88330002B7FF4BFAD9AF80060AF
:103CB0008DF8839032E59AF8006047F080072DE593
:103CC000524612F8016B2A2E01F0CD81A6F1300385
:103CD000092B924698BF002201F288801AF8016BE6
:103CE00002EB820203EB4202A6F13003092BF5D965
:103CF000079215E59AF800608DF883400EE5BB4603
:103D0000012B3FF4B6AD022B54AD12D1189A04F03A
:103D10000F032409D35C05F8013D44EA09744FEA16
:103D2000191954EA0903F2D154AB5B1B5F460B939C
:103D3000ACE504F00703E40844EA49744FEAD90902
:103D4000303354EA09012A4605F8013DF1D11BF050
:103D5000010FE9D0302BE7D03023023A05F8013CBF
:103D600054AB9B1A5F460B9315468FE5FFFFEF7F21
:103D700068B000086CB0000878B00008652E40F309
:103D8000E680DDE9140100220023FDF74BF900284D
:103D900000F0CD81299BBF4AC8F8002001330134CF
:103DA0000122072B2A942993C8F8042000F37D856B
:103DB00008F10808229B129A934280F2D382169B44
:103DC000179A1C44C8E90023299B2A940133072B26
:103DD000299300F3EB8308F10808129B5D1E002D68
:103DE0007FF736AE102D299BDFF8AC9240F36E853D
:103DF00049462246B946DDF828B00C9C10260F46ED
:103E000005E008F10808103D102D40F35B850133F3
:103E10001032072BC8E90076CDE92932F1DD28AA56
:103E20002146584605F0ECF900287FF498ADDDE90D
:103E300029320DF1AC08E6E7099B069AA3EB020BC9
:103E4000BBF1000F7FF7EAADBBF1100F299ADFF845
:103E500048922CDD1D9621464E460C9CDDF828909C
:103E6000102306E0ABF1100BBBF1100F08F10808AE
:103E70001ADD01321031072AC8E90063CDE9292192
:103E8000F0DD28AA214648460DF1AC0805F0B8F946
:103E900000287FF464ADABF1100BBBF1100FDDE92E
:103EA00029214FF01003E4DCB1461D9E0C4601327F
:103EB0005C44072ACDE92924C8F80090C8F804B06A
:103EC00000F31D8508F10808A8E5BBF1100F299A39
:103ED000DFF8C4912DDD41462046A8464C460C9D96
:103EE000DDF82890102306E0ABF1100BBBF1100FAA
:103EF00001F1080119DD01321030072AC1E9004340
:103F0000CDE92920F0DD28AA2946484605F078F9B0
:103F100000287FF424ADABF1100BBBF1100FDDE9ED
:103F200029202BA94FF01003E5DC4546A146884621
:103F3000044601325C44072ACDE92924C8F80090E0
:103F4000C8F804B000F3CC8108F108086EE5129BB4
:103F5000012B40F37C81299EC8F8005001360134C2
:103F60000123072E2A942996C8F8043000F3E08133
:103F700008F10808169B179A01361C44072EC8E959
:103F80000023CDE9296400F3E08108F10808DDE9A8
:103F9000140100220023FDF745F8002840F0748149
:103FA000129B0136013B01351C44072EC8F8005016
:103FB0002996C8F804302A9400F3598108F10808BA
:103FC0001A9BC8F8043001361C44072E24ABCDE9F7
:103FD0002964C8F800307FF739AD0C990A9828AAEF
:103FE00005F00EF900287FF4BAAC2A9C0DF1AC085C
:103FF0002EE5B9F1100FDDE929212BDDCDE91D3BBF
:104000001F96DDF828B04E461024A9460C9D04E00A
:10401000103E102E08F1080817DD01321F4B103139
:10402000072AC8E90034CDE92921F1DD28AA29466B
:1040300058460DF1AC0805F0E3F800287FF48FAC8A
:10404000103E102EDDE92921E7DCDDE91D3B4D4660
:10405000B1461F9EC8F80490013209EB0104072AFB
:104060000E49C8F80010CDE9292400F3FF839DF81C
:10407000832008F10808A8E40C990A981D9328AA3F
:1040800005F0BEF800287FF46AAC2A9C1D9B0DF158
:10409000AC08ADE4A8B00008BCB00008ACB00008A3
:1040A0000C990A9828AA05F0ABF800287FF457ACC1
:1040B0002A9C0DF1AC08ADE4102D299B21DD0A9F4F
:1040C000DDF83090102604E0103D102D08F10808AE
:1040D00017DD0133B04A1034072BC8E90026CDE9BB
:1040E0002934F1DD28AA494638460DF1AC0805F01F
:1040F00087F800287FF433AC103D102DDDE929341A
:10410000E7DC0133A44AC8F804502C44072BCDE95E
:104110002934C8F800207FF7A3AC0C990A9828AA84
:1041200005F06EF800287FF41AAC2A9C98E42299D6
:10413000002940F36683DDF84090129B9945A8BFA3
:104140009946B9F1000F0BDD299B01334C44072B35
:10415000C8E900592A94299300F32F8508F108082B
:10416000109EB9F1000FA8BFA6EB0906002E00F3C0
:104170003882DDF840B07805AB4400F16682229BBE
:10418000129A934202DBF90740F18E84169A17992E
:104190001444C8E90012299A2A940132072A299264
:1041A00000F3188508F10808129AAE18A6EB0B0662
:1041B000D51AAE42A8BF2E46002E0DDD299BC8F8A9
:1041C00000B001333444072BC8F804602A942993C3
:1041D00000F31A8608F10808002EA8BFAD1B002DB9
:1041E0007FF736AC102D299BDFF8B09140F36E833A
:1041F00049462246B946DDF828B00C9C10260F46E9
:1042000005E008F10808103D102D40F35B830133F1
:104210001032072BC8E90076CDE92932F1DD28AA52
:104220002146584604F0ECFF00287FF498ABDDE906
:1042300029320DF1AC08E6E7079B002B7FF41EAB9B
:104240005F46002307930B9354ADFFF71FBBFA079C
:104250003FF581AE299EC8F8005001360134012394
:10426000072E2A942996C8F804307FF7A7AE0C9938
:104270000A9828AA04F0C4FF00287FF470ABDDE997
:1042800029640DF1AC089BE6129B5D1E002D7FF7A3
:1042900097AE102DDFF8049140F3968322460797DE
:1042A0000A9C0C9F4FF0100B05E008F10808103D28
:1042B000102D40F3878301361032072EC8E9009B8A
:1042C000CDE92962F1DD28AA3946204604F098FF9D
:1042D00000287FF444ABDDE929620DF1AC08E6E784
:1042E0000C990A9828AA04F08BFF00287FF437ABBA
:1042F0002A9C0DF1AC08FFF799BB1BF0100340F0AE
:1043000028811BF0400200F079830E9A52F8044B8A
:104310000E929946A4B20123FFF7DEBA2D23644220
:104320008DF8833069EB4909BB460123FFF7D7BA03
:104330000C990A9828AA04F063FF00287FF40FABB9
:10434000DDE929640DF1AC0814E60C990A9828AA55
:1043500004F056FF00287FF402ABDDE929640DF17B
:10436000AC0814E6FD077FF573AB28E59AF800600A
:104370000E93FFF7D3B954ADFFF788BAB80500F133
:10438000A6834FEAE4794B46FFF766BA0E9B53F8D3
:10439000044B0E93FFF79DBAACB00008BCB0000808
:1043A000DDE9140102460B46FCF76EFE002840F0E2
:1043B0000F86612E00F04585412E00F06D84079B2D
:1043C000013326F02003069300F0A983472B00F069
:1043D0008885DDE9141247F480730F931346002B90
:1043E000C0F292850B9300231D938B460D93069B81
:1043F000462B00F0FD83452B00F044850799019181
:1044000026A9049123A9039122A9029102210B9BC1
:104410000A9800915A4602F007FD069B472B054675
:1044200040F0318617F0010FB9460F9F40F0FC8431
:10443000269B5B1B1293069B472B00F08283069BF7
:10444000462B00F01284229B1093109B069A013B8E
:10445000412A229300F0AD85F2B20021002BB8BFB3
:10446000109B8DF89020BABFC3F101032D222B229F
:10447000092B8DF8912040F38D850DF19F04B64FE7
:104480002246104687FB0321DA17C2EBA10202EB9A
:104490008201A3EB4101303100F8011C1946632968
:1044A000134600F1FF32ECDC3033D9B2831E9C425C
:1044B00002F8011C40F2F18513460DF1920201E071
:1044C00013F8011B02F8011B9C42F9D10DF1A10365
:1044D0000DF192021B1A134424AA9B1A1A93129BE1
:1044E0001A9A012B1A440B9240F39E850B9B169A45
:1044F00013440B930B9A002329F4806722EAE2729B
:1045000047F480770F930692139310931D9B002B13
:1045100040F03F839DF883200793FFF7C5B9199BAF
:10452000002B3FF482A9199B1B78002B3FF47DA937
:104530009AF8006047F48067FFF7F0B80E9B089880
:1045400053F8041B0E93C217C1E900025546FFF74A
:104550009DBA0E9B53F8044B0E930123FFF7BCB991
:104560007E4B189317F0200900F0EC800E9B073368
:1045700023F00703D3F8049053F8084B0E93F80781
:1045800009D554EA090306D030238DF8856047F039
:1045900002078DF8843027F4806B0223FFF79CB963
:1045A000BB46FFF725BB6E4B1893DBE70C990A98C7
:1045B00028AA04F025FE00287FF4D1A92A9C0DF139
:1045C000AC080AE40A98402103F0F2FE0C9B186044
:1045D0001861002800F065850C9A40235361FFF7AD
:1045E00066B8102E299BDFF87C9140F3298248465B
:1045F00042462146A846B9460A9C0C9D4FF0100B36
:10460000074604E00832103E102E40F313820133B7
:104610001031072BC2E9007BCDE92931F2DD28AA50
:104620002946204604F0ECFD00287FF498A9DDE936
:1046300029312BAAE7E72846CDF81C900E94FCF709
:104640005FF803460B90FFF7B3BA129BCDF82CA08E
:104650004246DDF84C801097EB1807935E46199F91
:10466000DDF87090DDF828A0DDF830B00F9B1395D1
:104670002146B8F1000F2FD0002B30D1013F08F1B7
:10468000FF381B9BC2E90039299B01334944072BA2
:104690002A91299368DC0832079B38789B1B834258
:1046A000A8BF0346002B1C460BDD29980130194496
:1046B0000728C2E900632A91299000F31481387811
:1046C0000832002CACBF051B0546002D0BDC064450
:1046D0000F9BB8F1000FCFD1002B00F023820F9B6E
:1046E000013B0F93CDE7102D29981DDD102404E028
:1046F000103D102D02F1080216DD0130194B10316A
:104700000728C2E90034CDE92901F1DD28AA59467C
:10471000504604F075FD00287FF421A9103D102DAE
:10472000DDE929012BAAE8DC01300E4B5560294454
:104730000728CDE92901136000F332823878083266
:104740000644C5E717F0100300F0A1800E9B53F854
:10475000044B0E9313E700BF6766666678B00008E7
:104760008CB00008BCB0000828AA5946504604F096
:1047700047FD00287FF4F3A82A992BAA8CE70BF4B5
:10478000806300220696CDF82CA0CDF8348054AF7B
:10479000DDF864809A4616460CE000232046494620
:1047A0000A22FBF72DFD0A2C79F100031BD30446E6
:1047B00089462F4620460A2200234946FBF720FD62
:1047C00030327D1E013607F8012CBAF1000FE4D01B
:1047D00098F800309E42E0D1FF2EDED00A2C79F10D
:1047E000000380F0408154AB5B1BDDF82CA0CDF8BA
:1047F00064801296DDF83480069E0B935F46FFF7C7
:1048000045B8299BBC4AC8F8002001330134012275
:10481000072B2A942993C8F8042000F3388108F163
:104820000808002940F09780129A07F0010313430B
:104830003FF40EA9169B17991A19C8E90013299B72
:104840002A920133072B299300F3478108F10808C6
:104850001299C8F8005001338C18072BCDE9293480
:10486000C8F804107FF7F2A8FFF7B7BB0C990A98B5
:104870001D9328AA04F0C4FC00287FF470A89DF8BA
:1048800083202A9C1D9B0DF1AC08FFF79EB817F002
:10489000400200F0C2800E9A52F8044B0E929946E4
:1048A000A4B26CE6BB46FEF7E4BF0C990A9828AAAE
:1048B00004F0A6FC00287FF452A82A9C0DF1AC0855
:1048C000FFF778BA14463A464F46914601332C44D6
:1048D000072BC8F80090C8F80450CDE929347FF7B9
:1048E000B5A8FFF77ABB28AA5946504604F088FCC1
:1048F00000287FF434A838782A992BAAE1E60C998D
:104900000A9828AA04F07CFC00287FF428A82A9C96
:104910000DF1AC08FFF782B8012BBB467FF4F3A979
:10492000FEF7ACBF0E9B089953F8042B5546116057
:104930000E93FFF7ABB8062B294628BF0623079531
:104940000D952A4606936D4D0E940B930F9113917E
:104950001091FEF7A9BF169B17981A19C8E9000312
:10496000299B2A920133072B299300F3B68008F183
:1049700008080029BFF66CAF4E421031DFF8809175
:1049800080F297824146DDF828B0A84610240C9D9D
:1049900004E00831103E102E40F3898201331032BA
:1049A000072BC1E90094CDE92932F2DD28AA294676
:1049B000584604F025FC00287EF4D1AFDDE9293209
:1049C0002BA9E7E7079F144601362C44072ECDE9B3
:1049D0002964C8F80090C8F804507FF7EFAA46E4AD
:1049E0000E9B17F4007914BF53F8044B53F8044B93
:1049F0000E931CBF9146E4B2FEF76BBF0E9B1BF4F7
:104A0000007914BF53F8044B53F8044B0E931CBFAA
:104A10009146E4B20123FEF75FBF0E9B17F40079C5
:104A200014BF53F8044B53F8044B0E931CBF91462C
:104A3000E4B2A4E5454690463A460C464F469146B8
:104A400001333444072BCDE92934C8F80090C8F865
:104A5000046057DC08F10808FFF78BBB2D228DF8A6
:104A60008320FFF750B81C9B1B99ED1A1A46284665
:104A700004F094FB98F801300BB108F101082046CE
:104A800049460A2200230026FBF7BAFB8FE60C9961
:104A90000A9828AA04F0B4FB00287EF460AF22999B
:104AA0002A9C0DF1AC08BCE6129AAE18A6EB0B06D8
:104AB000D51AAE42A8BF2E46FFF78EBB0E9B0899B3
:104AC00053F8042B0E9311805546FEF7DFBF44F3D5
:104AD000C0194B4664B2FEF7BFBE0C990A9828AACB
:104AE00004F08EFB00287EF43AAFDDE929322299EA
:104AF0000DF1AC083DE700BFA8B00008A0B0000869
:104B0000BCB000080C990A9828AA04F079FB002888
:104B10007EF425AF2A9C0DF1AC08FFF72ABB0623D3
:104B2000079356E4DDE91235EB189E421997B34618
:104B3000DDF82CA0109F90460C4628BF9B46FFF73F
:104B40001EBB229B1093DA1C02DB079A934204DD02
:104B5000023E26F02003069377E4109B129A9342BC
:104B6000C0F2488119F0010F00F01182169A134427
:104B70000B9319F4806F03D0109B002B00F3C781B7
:104B80000B9B23EAE3730693672600230F9313938B
:104B9000BCE42D2200238DF883200793FEF786BE08
:104BA00028AA5946504604F02BFB00287EF4D7AEC5
:104BB00038782A992BAA06448AE50C990A9828AADB
:104BC00004F01EFB00287EF4CAAE2A9C0DF1AC084E
:104BD000FFF7C6BA0C990A9828AA04F011FB00281E
:104BE0007EF4BDAE229B2A9C0DF1AC08FFF7DCBA27
:104BF0000799019126A9049123A9039122A9029161
:104C000003210B9B0A9800915A4602F00DF9037894
:104C1000302B054600F0F181229B079AB9461344D8
:104C20000F9FEC180B99584600220023FCF7FAF965
:104C300010B12346FFF7FDBB269BA342BFF4F9AB9F
:104C400030215A1C26921970269B9C42F9D8FFF7F6
:104C5000F0BB079B9DF883200E9406930B9307905F
:104C60000F9013901090FEF71FBE229A1092002A08
:104C700040F3E081079909F001030B4340F0B7814D
:104C8000109B0B93662619F4806F40F041810B9BBB
:104C900023EAE373069378E730238DF884305823B2
:104CA0008DF88530079B632B47F0020400F3BF802B
:104CB00000230D933BADDDE9141247F481730F938C
:104CC0001346002B2746C0F285800B9326F0200365
:104CD000069300238B461D93612E00F04081412EE8
:104CE0007FF485AB22AA0B99584604F0C7F900223D
:104CF0004FF07F53FBF72EFF02460B46CDE9102302
:104D000000220023FCF78EF908B101232293AC4B5B
:104D10000B93079BCDE912A6CDE91E78DDF82CA0F8
:104D2000DDE9106703F1FF39AB46109506E000227C
:104D3000002309F1FF39FCF775F9E8B9A14B00220E
:104D400030463946FBF706FF0F460646FCF7B2F938
:104D50000446FBF795FE0B46024639463046FBF704
:104D600041FD1AF80430B9F1FF3FD8464D460BF823
:104D7000013B06460F46DAD130463946924BDDF804
:104D800048A0139ECDF848800022A946DDF87C801B
:104D9000109D1E9FCDE91001FCF76CF9002855D13C
:104DA000DDE91001884B0022FCF73CF908B1E1076E
:104DB0004CD44B46002B06DB01335B4430220BF80E
:104DC000012B5B45FBD1ABEB0503B94612930F9F5B
:104DD000FFF731BB26F020030693DDE914349B4630
:104DE00004F100430B932D231D9375E700230793D4
:104DF000FEF796BC129B169A9A18109B0B92002BEA
:104E000040F3098167263EE70C990A9828AA04F026
:104E1000F7F900287EF4A3AD229D129B2A9C5D1B0E
:104E20000DF1AC08FFF7D8B9079BEC18FAE60A9821
:104E3000591C03F0BDFA0546002800F026810D90AC
:104E400039E730238DF88430782329E7129B2693A5
:104E50000B9B1BF8012CD97B8A425B4609D1302081
:104E600003F8010C269B5A1E269213F8012C91423E
:104E7000F6D0392A0BBF0B9A0132927AD2B203F8DC
:104E8000012CA0E707990B9B0A984C1C26A90491BA
:104E900023A9039122A9029102215A46019400916B
:104EA00001F0C2FF0546B9462C440F9FBAE64546BD
:104EB000884601333244072BCDE92932C8F80090E7
:104EC000C8F804607FF7C2AC0C990A9828AA04F0CD
:104ED00097F900287EF443ADDDE929320DF1AC08E5
:104EE000B6E4079B002B08BF0123079347F48073A8
:104EF0000F93159B002BC0F2B180DDF850B00D90E0
:104F00000B931D90FFF77ABA00230D9365E7672690
:104F100019990B78FF2B00F0B2800024109A2046DC
:104F200003E001300131FF2B08D0934206DAD21A98
:104F30004B78002BF5D10B780134F4E719911092DE
:104F400013900F940F9A139B1C9913440B9A01FB17
:104F500003230B9323EAE3730693FFF7D7BA22AA3E
:104F60000B99584604F08AF800224FF07F53FBF764
:104F7000F1FD02460B46CDE9102300220023FCF789
:104F800051F808B101232293104B0B93C1E6109BFB
:104F90000B93EEE5002963D130228DF892200DF1BC
:104FA0009302303302F8013B24ABD31A1A93FFF774
:104FB00096BA06F10F02D2B20121FFF74FBA00BF35
:104FC0008CB00008000030400000E03F78B00008DE
:104FD000159B384D002BB4BF2D229DF88320364BF6
:104FE000B8BF8DF8832027F08007FEF790BD169B91
:104FF000D31819440B91662645E60B9958460022B2
:105000000023FCF70FF800287FF406AE079BC3F1DE
:105010000103229301E6C3F101031A4422EAE27379
:105020000B9206936726B0E519F0010F3FF462AAD0
:10503000FFF75CBA079A09F0010959EA020304D1A3
:105040000123069366260B939FE5169B01331A44B2
:1050500022EAE2730B920693662696E50D90BCE673
:105060000DF192029DE70E9B9AF80160924653F86B
:10507000042B0E9342EAE2720792FEF74FBB002325
:105080000F9313935EE7079C0DE70C998B8943F010
:10509000400213468A81FEF76ABC02231A93FFF787
:1050A0001EBA0A9A0C2313604FF0FF330893FEF7E1
:1050B00065BC00BF70B0000874B000082DE9F04F67
:1050C000D5B01C46079191460546099003F0F4F8C7
:1050D0000268179210460E94FBF712FB16901DB152
:1050E000AB6B002B00F02A82079A536EDD0740F16C
:1050F0003881B2F90C2091B28F0409D4079B42F495
:1051000000529A8191B21A465B6E23F400535366A3
:105110000E0740F1CB80079B1B69002B00F0C68077
:1051200001F01A030A2B00F0CF8000242BAB4D4670
:10513000CDE92944CDE91944CDE91B4412942893C3
:105140009846189400230B940024CDE914342B784E
:10515000002B00F09D81AA4604E01AF8013F002BC5
:1051600000F0C780252BF8D1BAEB050640F0C580CA
:105170009AF80030002B00F08B8100234FF0FF32B3
:105180009AF801608DF883300A930AF1010A0892B7
:105190001F462B244FF020090AF1010AA6F1200333
:1051A0005A2B00F2ED80DFE813F0EB02EB00EB008E
:1051B000E602EB00EB00EB006A00EB00EB005C02A8
:1051C0008002EB0067028A02EB0085025B005B0055
:1051D0005B005B005B005B005B005B005B00EB0067
:1051E000EB00EB00EB00EB00EB00EB007A01EB00D7
:1051F000F801D2017A017A017A01EB00EB00EB00B1
:10520000EB00E102EB00EB002D02EB00EB00EB000A
:105210000202EB00A402EB00EB008307EB00EB00C3
:10522000EB00EB00EB00EB00EB00EB007A01EB0096
:10523000F801D4017A017A017A01C702D401CD01C3
:10524000EB00D402EB006C022F02B502CD01EB00A3
:1052500002027E008007EB00EB006107EB007E009E
:10526000A6F1300300221AF8016B02EB820203EB75
:105270004202A6F13003092BF5D90A928EE7DDF838
:1052800024B0584603F018F843681B931846FBF700
:1052900037FA1C900646584603F00EF883681993B7
:1052A000002E40F0CD869AF8006075E7079D0998BA
:1052B000294601F0ADFC002841F01C83A98901F0CA
:1052C0001A030A2B7FF431AF079AB2F90E30002B84
:1052D000FFF62BAF536ED80702D4890541F13B810D
:1052E0000799099823464A4655B0BDE8F04F01F0AA
:1052F0004FBCBAEB050600F0CB802A9B33442A93BF
:10530000299B0133072BC8E90056299305DC08F1D6
:1053100008080B9B33440B932AE70799099828AA9E
:1053200004F026F880B90DF1AC08F2E70799099866
:1053300028AA04F01DF8002800F09B800D9B1BB1EB
:105340000998194602F08EFE079A536ED90740F16C
:10535000EA8093895B0601F1D9820B9855B0BDE8CC
:10536000F08F079BB3F90C20900591B23FF5C4AEC6
:105370001D46986D02F0A8FFB5F90C2091B2BBE66E
:10538000002E00F0858000228DF8EC608DF88320DF
:105390000123CDE90C32069308920F9213921092DA
:1053A0003BAD17F0020302D006990231069117F0C7
:1053B000840B07D10A990698A1EB0009B9F1000FF7
:1053C00000F370832A9C8AB1299A0DF1830101327E
:1053D0000134C8F80010072A4FF001012A942992DD
:1053E000C8F8041000F3B68308F1080883B1299BBC
:1053F00021AA01330234C8F80020072B4FF0020223
:105400002A942993C8F8042000F3B28308F108080D
:10541000BBF1800F00F06982089B0C9AA3EB020B92
:10542000BBF1000F00F3AA82FB0500F100820C9B88
:10543000C8F804301C44299BC8F800500133072BDE
:105440002A94299300F3228308F10808780705D5E8
:105450000A9B069A9D1A002D00F39683DDE90A2324
:1054600006998A42ACBF9B185B180B93002C7FF403
:105470005DAF002329930D9B1BB10D99099802F094
:10548000F1FD0DF1AC0855462B78002B7FF463AE8F
:105490002A9B002B41F0D3810023299354E70E9BD4
:1054A000073323F00702F2E80234CDE91434DDE9D2
:1054B000143424F000440E92994618462146B54B08
:1054C0004FF0FF32FBF7E0FD002840F0EF84B14BD6
:1054D000484621464FF0FF32FBF7B8FD002840F068
:1054E000E584DDE9140100220023FBF7A5FD002877
:1054F00040F067879DF88320A74DA84B27F08007D1
:105500000321472EC8BF1D4600230D9306910C9121
:1055100008930F9313931093002A3FF442AF069B16
:10552000013306933DE7079B9B899A053FF512AF30
:10553000079CA06D02F0CAFEA3890BE7099802F050
:1055400099FCD1E59AF8006047F0200724E647F07F
:105550001007BA060E9B40F13B84073323F0070384
:105560001A465B6852F8084B0E929946002BC0F21F
:105570004C84089B013300F0D88254EA090327F0D9
:10558000800B40F0D382089B002B40F0D4825F4612
:10559000002308930C9354AD1DE10E9B002253F899
:1055A000041B8DF883208DF8EC100E93F0E60E9C12
:1055B000089B54F8045B4FF000098DF88390002D90
:1055C00000F093855A1C00F051861A464946284639
:1055D000FBF736F80D90002801F00E810D9BCDF8F9
:1055E00020905B1B0C930E9423EAE3739DF88320B9
:1055F0000693CDF83490CDF83C90CDF84C90CDF892
:10560000409089E747F0100717F0200900F0D28397
:105610000E9B073323F00703D3F8049053F8084B8D
:105620000E9327F4806B002300228DF88320089AC4
:10563000511C00F0B88054EA09012BF0800740F0BB
:10564000B180002A40F0F685002BA1D11BF00103A8
:105650000C9300F0148430238DF84F310DF24F1568
:10566000B9E00E9B53F8042B0A92002A80F2DA83E9
:105670000A9A0E9352420A929AF8006047F0040781
:105680008AE5BD0600F1D184FC0600F1D8857806D4
:1056900000F1A586B90540F1D2850E9B0B9953F810
:1056A000042B0E9311705546EEE69AF800608DF8C3
:1056B000834071E59AF8006047F080076CE5524638
:1056C00012F8016B2A2E01F03F82A6F13003092B5C
:1056D000924698BF002201F2BC801AF8016B02EBDF
:1056E000820203EB4202A6F13003092BF5D908929E
:1056F00054E547F0100B1BF0200900F076830E9B59
:10570000073323F00703D3F8049053F8084B0E93A4
:10571000012389E70E9B53F8044B0E933023782620
:105720008DF884301E4B189347F0020B8DF885607E
:105730004FF00009022377E79AF80060682E03BF54
:105740009AF8016047F400770AF1010A47F0400730
:1057500022E59AF800606C2E03BF9AF8016047F0CA
:1057600020070AF1010A47F0100715E59AF80060D2
:1057700047F0080710E59AF8006047F001070BE5CD
:105780009DF88330002B7FF48EAD9AF800608DF881
:10579000839001E5FFFFEF7F68B000086CB0000860
:1057A00078B00008BB46012B00F0C081022B54AD3D
:1057B00020D1189A04F00F032409D35C05F8013DA9
:1057C00044EA09744FEA191954EA0903F2D154ABB7
:1057D0005B1B5F460C9308990C989DF883208142CF
:1057E0004FF00003B8BF01460D9306910F9313933A
:1057F000109391E604F00703E40844EA49744FEA81
:10580000D909303354EA09012A4605F8013DF1D19E
:105810001BF0010FDBD0302BD9D03023023A05F832
:10582000013C54AB9B1A5F460C931546D3E7652E9B
:1058300040F3E680DDE9140100220023FBF7F2FBD0
:10584000002800F0DC81299BBF4AC8F80020013302
:1058500001340122072B2A942993C8F8042000F36D
:10586000CC8408F10808229B129A934280F2D682D7
:10587000169B179A1C44C8E90023299B2A940133DC
:10588000072B299300F3248408F10808129B5D1E5E
:10589000002D7FF7DBAD102D299BDFF8B09240F390
:1058A000BD8449462246B946DDF824B0079C10263F
:1058B0000F4605E008F10808103D102D40F3AA84BA
:1058C00001331032072BC8E90076CDE92932F1DD2A
:1058D00028AA2146584603F04BFD00287FF42EAD40
:1058E000DDE929320DF1AC08E6E70A9B069AA3EB45
:1058F000020BBBF1000F7FF78FADBBF1100F299AA0
:10590000DFF848922CDD1D9621464E46079CDDF8B7
:105910002490102306E0ABF1100BBBF1100F08F13F
:1059200008081ADD01321031072AC8E90063CDE901
:105930002921F0DD28AA214648460DF1AC0803F0E4
:1059400017FD00287FF4FAACABF1100BBBF1100F80
:10595000DDE929214FF01003E4DCB1461D9E0C4621
:1059600001325C44072ACDE92924C8F80090C8F820
:1059700004B000F3A08308F108084DE5BBF1100F57
:10598000299ADFF8C8912DDD41462046A8464C46AD
:10599000079DDDF82490102306E0ABF1100BBBF15E
:1059A000100F01F1080119DD01321030072AC1E999
:1059B0000043CDE92920F0DD28AA2946484603F016
:1059C000D7FC00287FF4BAACABF1100BBBF1100F81
:1059D000DDE929202BA94FF01003E5DC4546A1465F
:1059E0008846044601325C44072ACDE92924C8F8D8
:1059F0000090C8F804B000F3D08108F1080813E55E
:105A0000129B012B40F38081299EC8F8005001367B
:105A100001340123072E2A942996C8F8043000F394
:105A20007C8308F10808169B179A01361C44072E40
:105A3000C8E90023CDE9296400F37C8308F1080854
:105A4000DDE9140100220023FBF7ECFA002840F006
:105A50007881129B0136013B01351C44072EC8F8A2
:105A600000502996C8F804302A9400F35D8108F1AB
:105A700008081A9BC8F8043001361C44072E24ABD2
:105A8000CDE92964C8F800307FF7DEAC07990998A2
:105A900028AA03F06DFC00287FF450AC2A9C0DF17D
:105AA000AC08D3E4B9F1100FDDE929212BDDCDE9F4
:105AB0001D3B1F96DDF824B04E461024A946079DD5
:105AC00004E0103E102E08F1080817DD0132204BCB
:105AD0001031072AC8E90034CDE92921F1DD28AACF
:105AE000294658460DF1AC0803F042FC00287FF42B
:105AF00025AC103E102EDDE92921E7DCDDE91D3B58
:105B00004D46B1461F9EC8F80490013209EB0104CE
